:020000040800F2
:10000000A0100020D9010008994C00089147000871
:10001000954C00084908000899600008000000009D
:100020000000000000000000000000000150000877
:10003000050A000800000000094D0008595000089A
:10004000F3010008F3010008F3010008F3010008C0
:10005000F3010008F3010008F3010008F3010008B0
:10006000F3010008F3010008F3010008F3010008A0
:10007000F3010008F3010008F3010008F301000890
:10008000F3010008F3010008F3010008F301000880
:10009000F3010008F3010008F3010008F301000870
:1000A000F3010008F3010008F3010008F301000860
:1000B00031510008F3010008F3010008F3010008C2
:1000C000F3010008F3010008F30100080D4D0008DA
:1000D000F3010008F3010008F3010008F301000830
:1000E000090A0008F3010008F3010008F301000801
:1000F000F3010008F3010008F30100084D080008AF
:10010000F3010008F3010008F3010008F3010008FF
:10011000F3010008ED590008F3010008F30100089D
:10012000F3010008F3010008F30100085D0800086E
:10013000F30100080000000000000000F3010008C7
:10014000F3010008F3010008F3010008F3010008BF
:10015000F3010008F3010008F3010008F3010008AF
:10016000F3010008F3010008F3010008F30100089F
:10017000F3010008F3010008F3010008000000008B
:1001800000000000F3010008000000000000000073
:10019000F30100080000000000000000F301000867
:1001A000000000000000000000000000F301000853
:1001B000F3010008F3010008F3010008F30100084F
:1001C000F3010008DFF80CD000F02CFB00480047DA
:1001D000F9710008A0100020064880470648004733
:1001E000FEE7FEE7FEE7FEE7FEE7FEE7FEE7FEE7E7
:1001F000FEE7FEE71D510008C5010008026803493B
:1002000082FA41F202490A40026070470001FC0094
:10021000FF7F7FFF2DE9F05F0546002092469B4659
:1002200088460646814640241BE02846414647460C
:10023000224600F09EF953465A46C01A914110D307
:1002400011461846224600F085F92D1A67EB010881
:100250004F4622460120002100F07CF917EB0009EF
:100260004E41201EA4F10104DFDC484631462A46F7
:100270004346BDE8F09F002800DA40427047D2B202
:1002800001E000F8012B491EFBD270470022F6E77F
:1002900010B513460A4604461946FFF7F0FF2046FC
:1002A00010BD2DE9FE4F804681EA0300C00F0C46C9
:1002B000009021F0004123F00045B8EB0200A94175
:1002C00005D24046214690461C460B46024623F086
:1002D0000040104347D0270DC7F30A00C3F30A516B
:1002E0000290401A019040286BDAC3F3130040F4E7
:1002F000801B0098924620B10023D2EB030A63EBE7
:100300000B0B01985946C0F14002504600F022F90B
:1003100006460D4650465946019A00F03AF910EB50
:1003200008006141002487EA115284EAE7731A4306
:1003300040D0009A62B3019A012A4FEA075215DCB5
:10034000001B61EB02014FF0004202EA0752CDE9C7
:100350000042001C41F5801132462B4600F071F935
:1003600003B0BDE8F08F40462146F9E7001B61EB82
:100370000201001C41F5801300185B412018A2F512
:10038000001747EB030140EAD570B6196D4111E043
:100390006D084FEA360645EAC0754FEA0752001B62
:1003A00061EB0201001C41F5801149084FEA300061
:1003B0000019514132462B4603B0BDE8F04F00F022
:1003C00031B90098012240000023D0EB020263EB18
:1003D000E073009821464FEAE074B8EB000061EB4F
:1003E0000401E9E783F000435BE781F0004158E74F
:1003F0002DE9F04D81EA030404F0004B21F00045A3
:1004000014464FF0000A23F0004150EA050220D0C4
:1004100054EA01021DD0C5F30A570246C5F313037F
:10042000C1F31300C1F30A5640F4801543F480135E
:10043000A7EB0608101BD64608F2FD3873EB050043
:1004400002D308F1010801E092185B41B8F1000FF6
:1004500003DA00200146BDE8F08D00204FF4801142
:10046000064684460EE0171B73EB050705D3121BE7
:1004700063EB050306434CEA010C49084FEA3000E0
:1004800092185B4150EA0107EDD152EA030012D005
:1004900082EA040083EA0501084305D0101BAB4142
:1004A00006D20122002306E000224FF0004302E0C2
:1004B0006FF0010253101AEB06004CEB085110EBE1
:1004C0000A0041EB0B01BDE8F04D00F0ABB80EB5F2
:1004D000C10F80EAE0700844CA07002140F23343AC
:1004E0008DE80E000A460B4600F0ABF803B000BDE5
:1004F00001F0004330B421F0004150EA010206D07F
:100500000A0DA2F56072C1F31301002A02DC30BCAF
:1005100000207047440F44EAC104C100E01830BC19
:1005200000EBC25000F047B830B50B460146002042
:100530002022012409E021FA02F59D4205D303FAA5
:1005400002F5491B04FA02F52844151EA2F1010226
:10055000F1DC30BD202A04DB203A00FA02F1002051
:1005600070479140C2F1200320FA03F319439040F1
:100570007047202A04DB203A21FA02F0002170475C
:1005800021FA02F3D040C2F12002914008431946FB
:100590007047202A06DBCB17203A41FA02F043EAE3
:1005A000E07306E041FA02F3D040C2F1200291402C
:1005B0000843194670470029A8BF7047401C4900EE
:1005C00008BF20F00100704710B4B0FA80FC00FAB8
:1005D0000CF050EA010404BF10BC704749B1CCF1E3
:1005E000200421FA04F411FA0CF118BF012121436F
:1005F0000843A3EB0C01CB1D4FEA00614FEA10202A
:1006000042BF002010BC704700EBC35010440029CB
:10061000A4BF10BC7047401C490008BF20F0010077
:1006200010BC704710B5141E73F1000408DA401CAA
:1006300041F1000192185B411A4301D120F0010001
:1006400010BD2DE9F04D92469B4611B1B1FA81F2F1
:1006500002E0B0FA80F220329046FFF77BFF0446BA
:100660000F4640EA0A0041EA0B0153465A46084346
:1006700013D0114653EA010019D0C8F14002504688
:10068000FFF777FF05460E46504659464246FFF7AC
:1006900061FF084305D0012004E020463946BDE84B
:1006A000F08D0020054346EAE0762C4337430A9854
:1006B0006305E40AA0EB08000022FD0A44EA47545F
:1006C0000A3002D500200146E9E701051019694109
:1006D000DDE9084500196941BDE8F04DA2E72DE9C3
:1006E000FE4F81EA030404F0004421F0004100942D
:1006F0004FF0000B23F0004350EA01045ED052EAB1
:1007000003045BD0C3F30A54C1F30A552C44A4F28A
:10071000F3340194A0FB0254C1F3130141F480119E
:10072000C3F3130343F4801301FB024400FB034EA5
:10073000840A970A44EA815447EA8357A4FB07686E
:1007400002958D0A05FB07854FEA932C04FB0C5498
:100750002705029D4FEA065847EA1637B5EB08050C
:100760006EEB070C870E920E47EA811742EA83125E
:10077000A7FB0201B6EB0B0164EB00042B0D43EA6F
:100780000C335E1844EB1C50DA465146E7FB02017D
:10079000C5F313044FEA0B3343EA14534FEA043210
:1007A000019C43EA0603A4F10C040294009CCDE9E9
:1007B00000B4FFF746FF03B0BDE8F08F002001460C
:1007C000F9E7C1F30A52C1F3130140F2FF3341F4D8
:1007D00080119A4202DA00200146704740F233430A
:1007E0009A42A2F2334202DC5242FFF7C2BEFFF746
:1007F000B1BE000030B5041E71F1000404DB4FF0FF
:100800000044404264EB0101141E73F1000405DB57
:100810001C464FF00043524263EB0403994208BF69
:10082000904230BD064C074D06E0E06840F0010301
:1008300094E8070098471034AC42F6D3FFF7C6FCA3
:1008400088940008A8940008FFE7FEE780B540F20E
:10085000B400C2F2000000F089F980BD80B540F21A
:100860005400C2F2000000F081F980BD82B0019016
:100870000198007810384AF6AB21CAF6AA21A0FBED
:10088000011000090090009948F2B400C0F6000081
:10089000405C0199C8650098042807D3FFE70199D7
:1008A0000868042262F30900886506E00199086877
:1008B00040F2FF3290438865FFE70198806D02B0F7
:1008C0007047000086B0059000208DF81300059851
:1008D000806A03900598806910BBFFE70398029037
:1008E00003281BD80299DFE801F0020D02180598D1
:1008F00090F82F00C00720B1FFE701208DF813000A
:10090000FFE70CE00598C06AB0F1C07F04D1FFE7B3
:1009100001208DF81300FFE701E000E0FFE745E06C
:1009200005988069B0F5005F25D1FFE70398019035
:1009300003281ED80199DFE801F002060211012008
:100940008DF8130016E0059890F82F00C00720B12D
:10095000FFE701208DF81300FFE70BE00598C06A60
:10096000B0F1C07F04D1FFE701208DF81300FFE74D
:1009700000E0FFE719E003980090032804D3FFE7A5
:100980000098032804D00EE001208DF813000BE03E
:10099000059890F82F00C00720B1FFE701208DF8DF
:1009A0001300FFE700E0FFE7FFE7FFE79DF8130014
:1009B00006B0704784B003900291019200930398AF
:1009C0000168086820F4802008600098039909688D
:1009D000486003988068402809D1FFE7019803998F
:1009E00009688860029803990968C86008E002985D
:1009F000039909688860019803990968C860FFE74E
:100A000004B070477047000080B54FF4806000F07C
:100A1000A1FB4FF4005000F09DFB80BD81B0EFF3CF
:100A2000108072B60090FFE7FEE7000080B584B04A
:100A300002900298806D019000F0A6FD009002984F
:100A400090F8350002280DD0FFE702998020486514
:100A5000FFE70299002081F83400FFE701208DF8BC
:100A60000F0055E002980168086820F01600086041
:100A700002980168486920F0800048610298006C83
:100A800020B9FFE70298806C38B1FFE7029801684F
:100A9000086820F008000860FFE70298016808680D
:100AA00020F001000860FFE7029800680068C007B6
:100AB000C8B1FFE700F068FD0099401A062811D37D
:100AC000FFE70299202048650299032081F835004C
:100AD000FFE70299002081F83400FFE703208DF83A
:100AE0000F0015E0E0E70298C16D3F2088400199B2
:100AF00088600299012081F83500FFE70299002003
:100B000081F83400FFE7FFE700208DF80F00FFE7D2
:100B10009DF80F0004B080BD82B00090009890F85E
:100B20003500022807D0FFE70099802048650120A2
:100B30008DF807000EE00099052081F83500009837
:100B40000168086820F001000860FFE700208DF8C8
:100B50000700FFE79DF8070002B0704781B00090E2
:100B6000009890F8350001B07047000080B586B05D
:100B700005900020039040F21000C2F200000068CF
:100B800048F2B511C1F64E31A0FB0110800A029067
:100B90000598806D0190019800680490049805996B
:100BA000C96DC840000700281AD5FFE705980068FE
:100BB00000684007002812D5FFE70598016808681B
:100BC00020F0040008600598C16D08208840019954
:100BD00088600599486D40F001004865FFE7FFE730
:100BE00004980599C96DC840C007A0B1FFE70598F2
:100BF00000684069000600280CD5FFE70598C16D24
:100C000001208840019988600599486D40F00200F4
:100C10004865FFE7FFE704980599C96DC84040079C
:100C2000002814D5FFE705980068006880070028B1
:100C30000CD5FFE70598C16D0420884001998860B4
:100C40000599486D40F004004865FFE7FFE7049808
:100C50000599C96DC840C006002847D5FFE705982B
:100C600000680068000700283FD5FFE70598C16DC0
:100C7000102088400199886005980068006840034A
:100C800000281AD5FFE705980068006800030028CF
:100C900009D4FFE70598006C20B1FFE70598016CC7
:100CA0008847FFE708E00598806C20B1FFE70598CA
:100CB000816C8847FFE7FFE716E005980068006849
:100CC000C005002807D4FFE705980168086820F0F0
:100CD00008000860FFE70598006C20B1FFE7059861
:100CE000016C8847FFE7FFE7FFE7FFE704980599F6
:100CF000C96DC8408006002840F18D80FFE7059847
:100D000000680068C006002840F18480FFE705986D
:100D1000C16D2020884001998860059890F83500C1
:100D2000052834D1FFE705980168086820F016000F
:100D3000086005980168486920F0800048610598BE
:100D4000006C20B9FFE70598806C38B1FFE7059883
:100D50000168086820F008000860FFE70598C16D89
:100D60003F208840019988600599012081F835006D
:100D7000FFE70599002081F83400FFE70598006D32
:100D800020B1FFE70598016D8847FFE77BE00598F4
:100D900000680068400300281AD5FFE7059800683E
:100DA00000680003002809D4FFE70598406C20B1D3
:100DB000FFE70598416C8847FFE708E00598C06B9E
:100DC00020B1FFE70598C16B8847FFE7FFE720E008
:100DD000059800680068C005002811D4FFE7059851
:100DE0000168086820F0100008600599012081F86A
:100DF0003500FFE70599002081F83400FFE7FFE7A1
:100E00000598C06B20B1FFE70598C16B8847FFE7E5
:100E1000FFE7FFE7FFE70598406DA0B3FFE7059800
:100E2000406DC00730B3FFE70599052081F8350014
:100E300005980168086820F001000860FFE7039842
:100E4000013003900299884201D9FFE707E0FFE7EC
:100E5000059800680068C0070028F0D1FFE70599F1
:100E6000012081F83500FFE70599002081F8340062
:100E7000FFE7FFE70598C06C20B1FFE70598C16C5C
:100E80008847FFE7FFE706B080BD000080B586B069
:100E900004900020039000F077FB0290049820B9A2
:100EA000FFE701208DF81700A3E00498406A08B11D
:100EB000FFE7FFE70499022081F83500FFE7049976
:100EC000002081F83400FFE704980168086820F0EA
:100ED00001000860FFE7049800680068C00790B14F
:100EE000FFE700F051FB0299401A06280AD3FFE7FA
:100EF0000499202048650499032081F835008DF875
:100F0000170076E0E7E7049800680068039003980C
:100F100048F23F01CFF2100108400390049900917C
:100F20004868D1F808C0CB680A6940EA0C00184349
:100F300010434A6910438A691043CA691043096A19
:100F400001430398084303900498406A042808D199
:100F5000FFE70499C86A096B0143039808430390AB
:100F6000FFE70398049909680860049800684069DD
:100F70000390039820F0070003900498416A0398B7
:100F8000084303900498406A04281AD1FFE70498A4
:100F9000816A0398084303900498C06A80B1FFE710
:100FA0000498FFF78FFC50B1FFE704994020486593
:100FB0000499012081F835008DF8170019E0FFE74A
:100FC000FFE703980499096848610498FFF74EFC0D
:100FD00001900498C16D3F20884001998860049970
:100FE00000204865049A012182F835108DF8170019
:100FF000FFE79DF8170006B080BD000080B588B0FF
:10100000069005910492039300208DF80B0006983A
:10101000806D0190FFE7069890F83400012804D114
:10102000FFE702208DF81F0045E00699012081F8B6
:101030003400FFE7FFE7069890F8350001282BD130
:10104000FFE70699022081F83500069900204865DF
:1010500006980599049A039BFFF7ACFC0698C16DAE
:101060003F2088400199886006980168086840F030
:10107000160008600698006C38B1FFE70698016812
:10108000086840F008000860FFE7069801680868F3
:1010900040F00100086009E0FFE70699002081F8B0
:1010A0003400FFE702208DF80B00FFE79DF80B00EE
:1010B0008DF81F00FFE79DF81F0008B080BD0000FD
:1010C00080B584B0039000F05FFA0290039801901D
:1010D0000198013048B1FFE740F21C00C2F2000065
:1010E0000178019808440190FFE7FFE700F04CFA0F
:1010F0000299401A0199884201D2FFE7F6E704B04D
:1011000080BD000080B582B0ADF80600BDF80600D5
:10111000B0F5806F1CD1FFE740F60000C4F202007A
:101120004FF4806100F000FA012808D1FFE740F297
:10113000B410C2F200000C2102F03CFD07E040F2C6
:10114000B410C2F200000C2102F04EFCFFE7FFE7F2
:1011500002B080BD80B582B0ADF8060043F6144001
:10116000C4F201000068BDF8061008420CD0FFE789
:10117000BDF8060043F61441C4F201010860BDF851
:101180000600FFF7BFFFFFE702B080BD8DB00C90F7
:101190000B9100200990089007900A90FFE70A98A9
:1011A0000F2800F2BE81FFE70A99012088400990CC
:1011B0000B98006809990840089008980999884296
:1011C00040F0AA81FFE70B98406800F00300012877
:1011D00007D0FFE70B98406800F0030002282FD1EA
:1011E000FFE70C98806807900A984100032000FAF6
:1011F00001F10798884307900B98C0680A99490045
:1012000000FA01F107980843079007980C99886045
:101210000C98406807900A99012000FA01F107989C
:10122000884307900B984068C0F300100A9900FAB1
:1012300001F107980843079007980C994860FFE769
:101240000B98406800F00300032818D0FFE70C98C3
:10125000C06807900A984100032000FA01F107983E
:10126000884307900B9880680A99490000FA01F1B9
:1012700007980843079007980C99C860FFE70B98F8
:10128000406800F00300022826D1FFE70C980A9975
:101290006FF0030202EA51010844006A07900A98BD
:1012A00000F0070081000F2000FA01F10798884341
:1012B00007900B9800690A9901F00701890000FA6C
:1012C00001F107980843079007980C990A9B02EAD6
:1012D000530211440862FFE70C98006807900A98CF
:1012E0004100032000FA01F10798884307900B980A
:1012F000406800F003000A99490000FA01F10798DC
:101300000843079007980C9908600B98807980072C
:10131000002800F00081FFE7FFE70020069043F679
:101320004400C4F20200016841F480410160006899
:1013300000F4804006900698FFE70A9820F003002A
:1013400043F60801C4F20101405807900A9800F0E2
:10135000030081000F2000FA01F1079888430790ED
:101360000C980021C4F20201884203D1FFE700205B
:10137000059050E00C9840F20041C4F2020188420E
:1013800003D1FFE70120049042E00C9840F60001F1
:10139000C4F20201884203D1FFE70220039034E047
:1013A0000C9840F60041C4F20201884203D1FFE7E5
:1013B0000320029026E00C9841F20001C4F20201E1
:1013C000884203D1FFE70420019018E00C9841F215
:1013D0000041C4F20201884203D1FFE705200090DA
:1013E0000AE00C9941F60002C4F202020720914281
:1013F00008BF06200090FFE700980190FFE70198E2
:101400000290FFE702980390FFE703980490FFE73C
:1014100004980590FFE70598C0B20A9901F003010E
:10142000890000FA01F107980843079007980A9984
:1014300021F0030143F60802C4F20102885043F68A
:101440000840C4F201000068079008990798884393
:1014500007900B988079C006002805D5FFE708990A
:10146000079808430790FFE7079843F60841C4F23E
:101470000101086043F60C40C4F2010000680790C7
:1014800008990798884307900B9880798006002870
:1014900005D5FFE70899079808430790FFE70798E5
:1014A00043F60C41C4F20101086043F60440C4F263
:1014B00001000068079008990798884307900B98E7
:1014C00080798007002805D5FFE708990798084329
:1014D0000790FFE7079843F60441C4F20101086052
:1014E00043F60040C4F2010000680790089907988D
:1014F000884307900B988079C00728B1FFE70899C7
:10150000079808430790FFE7079843F60041C4F2A5
:1015100001010860FFE7FFE7FFE70A9801300A9042
:101520003DE60DB07047000082B00190ADF80210AA
:1015300001980069BDF80210084204D0FFE70120BD
:101540008DF8010003E000208DF80100FFE79DF811
:10155000010002B07047000082B00190ADF80210A7
:101560008DF801209DF8010028B1FFE7BDF80200C9
:101570000199886105E0BDF80200000401998861C5
:10158000FFE702B07047000040F69C20C2F2000066
:101590000068704740F21C00C2F20000027840F67A
:1015A0009C21C2F2000108681044086070470000E6
:1015B00080B582B043F60041C4F20201086840F4ED
:1015C00000700860086840F480600860086840F4B3
:1015D00080700860032000F08FF80020019000F078
:1015E00005F800F03BF8019802B080BD80B582B0EC
:1015F000009040F21000C2F20000006840F21C01AE
:10160000C2F200010A784FF47A71B1FBF2F1B0FB3B
:10161000F1F001F09DFA20B1FFE701208DF80700FD
:1016200018E000980F280DD8FFE700994FF0FF3021
:10163000002200F047F8009840F22001C2F20001B9
:10164000086003E001208DF8070003E000208DF81A
:101650000700FFE79DF8070002B080BD80B582B0AB
:10166000FFE70020019043F64400C4F20200016845
:1016700041F480410160006800F4804001900198CD
:10168000FFE7FFE70020009043F64000C4F20200AD
:10169000016841F080510160006800F080500090C6
:1016A0000098FFE7072000F027F802B080BD000097
:1016B00080B582B08DF807009DF9070004F0EEFCBC
:1016C00002B080BD80B586B08DF8170004910392FA
:1016D0000020029004F0FAFC02909DF9170001909E
:1016E00002980499039A03F0D9FA0146019804F08C
:1016F000F5FC06B080BD000080B582B00190019875
:1017000004F00EFD02B080BD80B584B0029001915E
:10171000029820B9FFE701208DF80F0021E1019820
:1017200043F60041C4F20201096801F00F0188424A
:1017300012D9FFE7019943F60040C4F2020001709C
:10174000006800F00F000199884204D0FFE70120F3
:101750008DF80F0005E1FFE7029800788007002868
:101760002AD5FFE7029800784007002809D5FFE74F
:1017700043F60801C4F20201086840F4E050086032
:10178000FFE7029800780007002809D5FFE743F635
:101790000801C4F20201086840F460400860FFE7F5
:1017A00043F60801C4F20201086820F0F000029A32
:1017B000926810430860FFE702980078C00700288D
:1017C0006ED0FFE702984068012811D1FFE743F689
:1017D0000000C4F20200006800F400310020B0EB09
:1017E000514F04D1FFE701208DF80F00B9E02CE044
:1017F00002984068022805D0FFE702984068032855
:1018000011D1FFE743F60000C4F20200006800F0C7
:1018100000710020B0EB516F04D1FFE701208DF87B
:101820000F009EE010E043F60000C4F202000068E2
:1018300000F002010020B0EB510F04D1FFE70120BE
:101840008DF80F008DE0FFE7FFE743F60801C4F2D3
:101850000201086820F00300029A526810430860F1
:10186000FFF792FE0090FFE743F60800C4F2020083
:10187000006800F00C0002994968B0EB810F0ED0AF
:10188000FFE7FFF781FE0099401A41F28931884253
:1018900004D3FFE703208DF80F0062E0E4E7FFE7E1
:1018A000019843F60041C4F20201096801F00F01FA
:1018B000884212D2FFE7019943F60040C4F20200C9
:1018C0000170006800F00F000199884204D0FFE722
:1018D00001208DF80F0044E0FFE7029800784007F0
:1018E00000280CD5FFE743F60801C4F2020108689E
:1018F00020F4E050029AD26810430860FFE7029893
:101900000078000700280DD5FFE743F60801C4F270
:101910000201086820F46040029A126940EAC2009D
:101920000860FFE700F04CF843F60801C4F202013A
:101930000968C9B20A0948F29C01C0F60001895C35
:10194000C84040F21001C2F20001086040F22000DD
:10195000C2F200000068FFF749FE00208DF80F007A
:10196000FFE79DF80F0004B080BD000040F21000BA
:10197000C2F200000068704780B5FFF7F7FF43F63A
:101980000801C4F202010968C1F3822248F2AC01E5
:10199000C0F60001895CC84080BD000080B5FFF73B
:1019A000E5FF43F60801C4F20201096889B24A0B57
:1019B00048F2AC01C0F60001895CC84080BD00005F
:1019C00080B586B0002005900490039002900190AD
:1019D00043F60800C4F20200006800F00C00014663
:1019E00000910C2800F29B800099DFE801F0079835
:1019F00098980D98989813989898570042F200403C
:101A0000C0F2F400019090E041F20020C0F27A00B0
:101A100001908AE043F60400C4F20200016801F07C
:101A20003F01059100684002002813D5FFE743F607
:101A30000400C4F202000068C0F3881041F20021E3
:101A4000C0F27A01A0FB0101059A0023FEF7E2FB38
:101A5000049012E043F60400C4F202000068C0F3F0
:101A6000881042F20041C0F2F401A0FB0101059A86
:101A70000023FEF7CFFB0490FFE743F60400C4F217
:101A80000200006800F44031022000EBD1300390E6
:101A900004980399B0FBF1F0019046E043F604008E
:101AA000C4F20200016801F03F01059100684002A4
:101AB000002813D5FFE743F60400C4F202000068D3
:101AC000C0F3881041F20021C0F27A01A0FB0101AD
:101AD000059A0023FEF79EFB049012E043F60400F3
:101AE000C4F202000068C0F3881042F20041C0F264
:101AF000F401A0FB0101059A0023FEF78BFB049083
:101B0000FFE743F60400C4F202000068C0F302706D
:101B1000029004980299B0FBF1F0019005E042F2C6
:101B20000040C0F2F4000190FFE7019806B080BDCC
:101B300080B586B00490049820B9FFE701208DF8A5
:101B4000170084E304980078C007002800F0BA80EA
:101B5000FFE743F60800C4F20200006800F00C0042
:101B6000042828D0FFE743F60800C4F2020000680A
:101B700000F00C0008280BD1FFE743F60400C4F284
:101B80000200006800F48000B0F5800F13D0FFE77A
:101B900043F60800C4F20200006800F00C000C28B4
:101BA0001ED1FFE743F60400C4F2020000684002C1
:101BB000002815D5FFE743F60000C4F202000068D4
:101BC00000F400310020B0EB514F08D0FFE704983B
:101BD000406820B9FFE701208DF8170037E370E077
:101BE000FFE704984068B0F5803F09D1FFE743F66E
:101BF0000001C4F20201086840F48030086020E06F
:101C000004984068B0F5A02F0DD1FFE743F600011E
:101C1000C4F20201086840F480200860086840F4BB
:101C2000803008600CE043F60001C4F2020108684D
:101C300020F480300860086820F480200860FFE706
:101C4000FFE7FFE704984068E8B1FFE7FFF79CFC77
:101C50000390FFE743F60000C4F20200006800F4BE
:101C600000310020B0EB514F0CD1FFE7FFF78CFCA7
:101C70000399401A652804D3FFE703208DF8170065
:101C8000E5E2E7E71CE0FFF77FFC0390FFE743F6A0
:101C90000000C4F20200006800F400310020B0EB44
:101CA000514F0CD0FFE7FFF76FFC0399401A6528EE
:101CB00004D3FFE703208DF81700C8E2E7E7FFE74A
:101CC000FFE7FFE7049800788007002840F1A9802B
:101CD000FFE743F60800C4F20200006810F00C0FA2
:101CE00026D0FFE743F60800C4F20200006800F0C7
:101CF0000C00082809D1FFE743F60400C4F20200F3
:101D000000684002002813D5FFE743F60800C4F23C
:101D10000200006800F00C000C282CD1FFE743F60D
:101D20000400C4F2020000684002002823D4FFE748
:101D300043F60000C4F20200006800F00201002037
:101D4000B0EB510F09D0FFE70498C068012804D018
:101D5000FFE701208DF8170079E243F60001C4F295
:101D60000201086820F0F800049A126940EAC200F3
:101D70000860FFE754E00498C06870B3FFE70021F3
:101D8000C4F2472101200860FFF7FEFB0390FFE744
:101D900043F60000C4F20200006800F002010020D7
:101DA000B0EB510F0CD1FFE7FFF7EEFB0399401AA0
:101DB000032804D3FFE703208DF8170047E2E7E785
:101DC00043F60001C4F20201086820F0F800049A0A
:101DD000126940EAC200086021E00021C4F24721F4
:101DE00000200860FFF7D0FB0390FFE743F60000F8
:101DF000C4F20200006800F002010020B0EB510FB5
:101E00000CD0FFE7FFF7C0FB0399401A032804D367
:101E1000FFE703208DF8170019E2E7E7FFE7FFE788
:101E2000FFE704980078000700284BD5FFE70498E7
:101E3000406918B3FFE740F68061C4F247210120F2
:101E40000860FFF7A1FB0390FFE743F67400C4F2BC
:101E50000200006800F002010020B0EB510F0CD12D
:101E6000FFE7FFF791FB0399401A032804D3FFE72C
:101E700003208DF81700EAE1E7E722E040F68061F1
:101E8000C4F2472100200860FFF77EFB0390FFE7C4
:101E900043F67400C4F20200006800F00201002062
:101EA000B0EB510F0CD0FFE7FFF76EFB0399401A20
:101EB000032804D3FFE703208DF81700C7E1E7E705
:101EC000FFE7FFE7049800784007002840F1CE8044
:101ED000FFE700208DF8070043F64000C4F202003F
:101EE0000068C000002815D4FFE7FFE7002000903D
:101EF00043F64000C4F20200016841F080510160E5
:101F0000006800F0805000900098FFE701208DF8F5
:101F10000700FFE747F20000C4F200000068C005B8
:101F2000002822D4FFE747F20001C4F2000108684C
:101F300040F480700860FFF727FB0390FFE747F24B
:101F40000000C4F200000068C00500280CD4FFE7C0
:101F5000FFF71AFB0399401A032804D3FFE7032075
:101F60008DF8170073E1EAE7FFE7FFE70498806860
:101F7000012809D1FFE743F67001C4F202010868A5
:101F800040F0010008601FE00498806805280DD12A
:101F9000FFE743F67001C4F20201086840F0040054
:101FA0000860086840F0010008600CE043F670012A
:101FB000C4F20201086820F001000860086820F0FF
:101FC00004000860FFE7FFE7FFE704988068F8B1C6
:101FD000FFE7FFF7D9FA0390FFE743F67000C4F27A
:101FE0000200006800F002010020B0EB510F0ED19A
:101FF000FFE7FFF7C9FA0399401A41F28931884295
:1020000004D3FFE703208DF8170020E1E5E71EE089
:10201000FFF7BAFA0390FFE743F67000C4F202003C
:10202000006800F002010020B0EB510F0ED0FFE776
:10203000FFF7AAFA0399401A41F28931884204D382
:10204000FFE703208DF8170001E1E5E7FFE79DF8C2
:102050000700012809D1FFE743F64001C4F202015D
:10206000086820F080500860FFE7FFE70498806967
:10207000002800F0E880FFE743F60800C4F2020001
:10208000006800F00C00082800F08880FFE7049842
:10209000806902285FD1FFE76021C4F24721002058
:1020A0000860FFF771FA0390FFE743F60000C4F2FF
:1020B0000200006800F000710020B0EB516F0CD0FE
:1020C000FFE7FFF761FA0399401A032804D3FFE7FB
:1020D00003208DF81700BAE0E7E70499C869D1F842
:1020E00020C04B6A8A6A40EA0C0040EA8310D2039F
:1020F0004FF6FF739A43A2F580321043CA6A40EA52
:102100000260096B40EA017043F60401C4F2020167
:1021100008606021C4F2472101200860FFF734FA0B
:102120000390FFE743F60000C4F20200006800F0ED
:1021300000710020B0EB516F0CD1FFE7FFF724FADC
:102140000399401A032804D3FFE703208DF81700F2
:102150007DE0E7E721E06021C4F24721002008602C
:10216000FFF712FA0390FFE743F60000C4F2020003
:10217000006800F000710020B0EB516F0CD0FFE759
:10218000FFF702FA0399401A032804D3FFE703205C
:102190008DF817005BE0E7E7FFE753E004988069FC
:1021A000012804D1FFE701208DF817004FE043F626
:1021B0000400C4F2020000680290049880690128BB
:1021C0003AD0FFE7029800F480000499C969884278
:1021D00032D1FFE7029800F03F000499096A884273
:1021E0002AD1FFE7029847F6C07108400499496A6E
:1021F000B0EB811F20D1FFE7029800F44030049932
:10220000896AC9034FF6FF729143A1F58031884274
:1022100012D1FFE7029800F070600499C96AB0EB30
:10222000016F09D1FFE7029800F0E0400499096BC3
:10223000B0EB017F04D0FFE701208DF8170006E026
:10224000FFE7FFE7FFE700208DF81700FFE79DF8A5
:10225000170006B080BD000081B0009001B070474B
:1022600080B588B007900798006840680690079886
:102270000068806805909DF8140000F0400100207F
:10228000B0EB911F11D1FFE70598C00768B1FFE7D8
:102290009DF8180000F040010020B0EB911F04D021
:1022A000FFE70798016C8847F0E09DF8140000F004
:1022B00002010020B0EB510F0BD0FFE79DF8181082
:1022C0000020B0EBD11F04D0FFE70798416C88478E
:1022D000DCE09DF8140000F020010020B0EB511F5D
:1022E00010D1FFE79DF8140000F040010020B0EB92
:1022F000911F07D1FFE79DF81500C007002800F0E7
:10230000C580FFE79DF8180000F020010020B0EB29
:10231000511F00F0BB80FFE79DF8140000F0400162
:102320000020B0EB911F28D0FFE7079890F85100EC
:10233000032813D0FFE70799486D40F00400486573
:10234000FFE70020049007980068C0680490079891
:102350000068806804900498FFE70DE0FFE7002024
:10236000039007980068C068039007980068806829
:1023700003900398FFE789E0FFE79DF8140000F061
:1023800020010020B0EB511F15D0FFE70799486DE1
:1023900040F001004865FFE70020029007980068C0
:1023A0008068029007980168086820F04000086083
:1023B0000298FFE7FFE79DF81500C00778B1FFE737
:1023C0000799486D40F008004865FFE7002001903C
:1023D00007980068806801900198FFE7FFE7079879
:1023E000406D002851D0FFE707980168486820F049
:1023F000E00048600799012081F85100069800F03C
:102400000200022805D0FFE79DF81800C007B8B306
:10241000FFE707980168486820F0030048600798C4
:10242000C06CA0B1FFE70798C16C44F61D50C0F620
:10243000000008650798C06CFEF76EFB30B1FFE73F
:102440000799486D40F040004865FFE7FFE70798AF
:10245000806CA0B1FFE70798816C44F61D50C0F670
:10246000000008650798806CFEF756FB30B1FFE767
:102470000799486D40F040004865FFE7FFE703E03B
:102480000798FFF7E9FEFFE7FFE7FFE708B080BD29
:1024900080B584B00290029820B9FFE701208DF842
:1024A0000F0071E00298406A60B9FFE70298406847
:1024B000B0F5827F01D1FFE703E002990020C861F7
:1024C000FFE705E002990020086102994861FFE7F3
:1024D000029900208862029890F8510040B9FFE705
:1024E0000299002081F85000029800F051F8FFE7AF
:1024F0000299022081F8510002980168086820F0D2
:1025000040000860029A019211685068D2F808C031
:10251000D36800F482700CF4044C604403F400634C
:102520001844136903F002031844536903F00103CC
:102530001844936903F400731844D36903F0380313
:102540001844136A03F080031843926A02F400529D
:1025500010430860029A508B00F004001168526A20
:1025600002F010021044486002980168C86920F423
:102570000060C861029900204865029A012182F832
:1025800051108DF80F00FFE79DF80F0004B080BDDB
:1025900080B58CB00B9000200A90099008900790AD
:1025A00006900B98006843F20001C4F201018842D2
:1025B00067D1FFE7FFE70020059043F64400C4F22F
:1025C0000200016841F480510160006800F480500D
:1025D00005900598FFE7FFE70020049043F63000E0
:1025E000C4F20200016841F001010160006800F0DE
:1025F000010004900498FFE7E02006900220079075
:102600000020029008900320099005200A900020E5
:10261000C4F2020006A9FEF7B9FD029940F2540087
:10262000C2F20000039046F25842C4F20202026075
:102630004FF0C062426040228260C1604FF480620D
:10264000026141618161C16101624162FEF71EFC6C
:1026500018B1FFE7FEF7E2F9FFE7FFE70B9840F25A
:102660005401C2F2000181640B988863FFE72320C4
:10267000019000221146FFF725F80198FFF718F89E
:10268000FFE70CB080BD000080B588B006900591D2
:10269000ADF81220039300208DF80700FFE706989D
:1026A00090F85000012804D1FFE702208DF81F00A8
:1026B00028E10699012081F85000FFE7FFE7FEF7C7
:1026C00063FF0290BDF81200ADF80400069890F880
:1026D0005100012804D0FFE702208DF8070002E135
:1026E000059820B1FFE7BDF8120020B9FFE70120EF
:1026F0008DF80700F7E00699032081F8510006994C
:10270000002048650599069A1163BDF81210069AD3
:102710009186BDF81210069AD186069988630699AB
:1027200088870699C88706994864069908640698B8
:102730008068B0F5004F0DD1FFE706980168086882
:1027400020F04000086006980168086840F4804066
:102750000860FFE706980068006800F04000402825
:1027600007D0FFE706980168086840F0400008605D
:10277000FFE70698C068B0F5006F47D1FFE70698FD
:10278000406828B1FFE7BDF8040001280ED1FFE73B
:1027900006980168006B0088C8600699086B0230D3
:1027A00008630699C88E0138C886FFE7FFE70698D8
:1027B000C08E50B3FFE70698006880688007002845
:1027C0000ED5FFE706980168006B0088C86006997F
:1027D000086B023008630699C88E0138C88613E07A
:1027E000FEF7D2FE0299401A0399884204D3FFE70C
:1027F0000398013018B9FFE7039820B9FFE70320D9
:102800008DF807006FE0FFE7D1E746E006984068E3
:1028100028B1FFE7BDF8040001280ED1FFE70698B4
:102820000168006B007808730699086B0130086333
:102830000699C88E0138C886FFE7FFE70698C08E64
:1028400050B3FFE7069800688068800700280ED51F
:10285000FFE706980168006B007808730699086B1B
:10286000013008630699C88E0138C88613E0FEF768
:102870008BFE0299401A0399884204D3FFE703981C
:10288000013018B9FFE7039820B9FFE703208DF85E
:10289000070028E0FFE7D1E7FFE706980399029ACF
:1028A00002F0C6FA20B1FFE7069920204865FFE74D
:1028B0000698806870B9FFE7FFE70020009006984F
:1028C0000068C068009006980068806800900098D2
:1028D000FFE7FFE70698406D20B1FFE701208DF884
:1028E0000700FFE7FFE70699012081F85100FFE7A5
:1028F0000699002081F85000FFE79DF807008DF849
:102900001F00FFE79DF81F0008B080BD80B584B0B0
:1029100002900191ADF8022000208DF80100FFE740
:10292000029890F85000012804D1FFE702208DF8AA
:102930000F009FE00299012081F85000FFE7FFE7B8
:10294000029890F85100012804D0FFE702208DF88A
:10295000010084E0019820B1FFE7BDF8020020B932
:10296000FFE701208DF8010079E00299032081F84A
:1029700051000299002048650199029A1163BDF83F
:102980000210029A9186BDF80210029AD18602992D
:1029900088630299486402990864029988870299B9
:1029A000C88702988068B0F5004F0DD1FFE7029804
:1029B0000168086820F04000086002980168086813
:1029C00040F480400860FFE70298816C44F6715043
:1029D000C0F6000008640298816C44F68950C0F685
:1029E0000000C8630298816C44F63D50C0F60000B8
:1029F000C8640298816C00200865029B1A68196BF4
:102A0000986C0C32DB8EFEF7F9FA60B1FFE70299A1
:102A1000486D40F01000486501208DF801000299D2
:102A200081F851001BE002980068006800F0400047
:102A3000402807D0FFE702980168086840F040008E
:102A40000860FFE702980168486840F0200048608D
:102A500002980168486840F002004860FFE7FFE71D
:102A60000299002081F85000FFE79DF801008DF8E1
:102A70000F00FFE79DF80F0004B080BD81B000900B
:102A800001B0704781B0009001B0704780B540F24E
:102A90002C00C2F2000001680131016040F22802FE
:102AA000C2F2000211680131116040F69822C2F2B0
:102AB00000021168013111600068B0F5FA7F0DD194
:102AC000FFE740F25001C2F200010120086040F22D
:102AD0002C01C2F2000100200860FFE740F228004C
:102AE000C2F200000068B0F5FA6F19DDFFE740F2AE
:102AF0008821C2F200010868013045F25652C5F241
:102B0000555250FB02F202EBD27202EB4202801AE3
:102B1000086040F22801C2F2000100200860FFE7CF
:102B200040F69820C2F20000006840F2D24188428C
:102B30000DD1FFE740F21800C2F20000FDF75EFB86
:102B400040F69821C2F2000100200860FFE780BD36
:102B500080B582B00190019802F054FA02B080BDB5
:102B600080B5FFF793FF80BD81B0009001B0704742
:102B700081B0009001B0704785B003900291FFE7EB
:102B8000039890F83C00012804D1FFE702208DF85B
:102B900013007EE00399012081F83C00FFE7FFE786
:102BA0000399022081F83D00039800684068019075
:102BB0000398006880680090019820F070000190F0
:102BC00002980168019808430190019803990968E7
:102BD0004860039800680021C4F2010188423CD09B
:102BE000FFE703980068B0F1804F36D0FFE7039805
:102BF000006840F20041C4F2000188422DD0FFE796
:102C00000398006840F60001C4F20001884224D015
:102C1000FFE70398006840F60041C4F200018842D3
:102C20001BD0FFE70398006840F20041C4F20101A5
:102C3000884212D0FFE70398006844F20001C4F212
:102C40000101884209D0FFE70398006841F60001BE
:102C5000C4F2000188420ED1FFE7009820F0800006
:102C600000900298416800980843009000980399EA
:102C700009688860FFE70399012081F83D00FFE7BC
:102C80000399002081F83C00FFE700208DF8130035
:102C9000FFE79DF8130005B07047000080B582B0D3
:102CA0000090009820B9FFE701208DF807003FE071
:102CB000009890F83D0040B9FFE70099002081F8A6
:102CC0003C00009800F038F8FFE70099022081F8F6
:102CD0003D00009951F8040B02F032FA00990120EE
:102CE00081F84600FFE70099012081F83E00009935
:102CF00081F83F00009981F84000009981F8410077
:102D0000FFE7FFE70099012081F84200009981F870
:102D10004300009981F84400009981F84500FFE7DD
:102D20000099012081F83D0000208DF80700FFE7A1
:102D30009DF8070002B080BD80B58CB00B900020DC
:102D40000A9009900890079006900B980068B0F1DF
:102D5000804F3DD1FFE7FFE70020059043F640009C
:102D6000C4F20200016841F001010160006800F056
:102D7000010005900598FFE7FFE70020049043F667
:102D80003000C4F20200016841F0020101600068F5
:102D900000F0020004900498FFE70420069002204F
:102DA0000790002001900890099001200A9040F2BD
:102DB0000040C4F2020006A9FEF7E8F9019A1C20BF
:102DC00002901146FEF77EFC0298FEF771FC1BE0B4
:102DD0000B98006840F20041C4F20001884212D111
:102DE000FFE7FFE70020039043F64000C4F2020033
:102DF000016841F002010160006800F002000390E8
:102E00000398FFE7FFE7FFE70CB080BD80B586B011
:102E10000490039100208DF80B00FFE7049890F8D0
:102E20003C00012804D1FFE702208DF81700ABE039
:102E30000499012081F83C00FFE7FFE70499022094
:102E400081F83D000498006880680190019820F0A6
:102E500077000190019820F47F4001900198049937
:102E600009688860039800680090002872D0FFE726
:102E7000009810286ED0FFE7009820286AD0FFE75E
:102E80000098302866D0FFE70098402855D0FFE72B
:102E90000098502837D0FFE70098602840D0FFE71F
:102EA000009870280BD0FFE70098B0F5805F05D040
:102EB000FFE70098B0F5005F16D052E055E00498A7
:102EC0000068039B5A689968DB6802F023FA04984B
:102ED000006880680190019840F0770001900198A7
:102EE00004990968886040E004980068039B5A6868
:102EF0009968DB6802F00EFA04980168886840F46B
:102F00008040886031E004980068039A5168D26874
:102F100002F0ECFB04980068502102F015FA24E05E
:102F200004980068039A5168D26802F093FC0498F0
:102F30000068602102F008FA17E004980068039A1C
:102F40005168D26802F0D2FB04980068402102F078
:102F5000FBF90AE0049800680399096802F0F4F9A3
:102F600003E001208DF80B00FFE70499012081F8B0
:102F70003D00FFE70499002081F83C00FFE79DF841
:102F80000B008DF81700FFE79DF8170006B080BD15
:102F900080B582B0019040F23800C2F200000068B3
:102FA00080B9FFE701980C2100F08CFE40F230015F
:102FB000C2F20001086040F23801C2F200010120B3
:102FC000086030E001980C2100F07CFE014640F2E0
:102FD0003400C2F20000016040F23802C2F2000286
:102FE00000211160006840F23001C2F2000109685E
:102FF000401AFDF740F9FDF76AFA41EC100B51EC6D
:10300000100B9FED0B0B53EC102BFDF7F1F941EC7E
:10301000100B51EC100BFDF76BFA40F24C01C2F2B1
:1030200000010860FFE702B080BD00BF00BF00BF25
:10303000295C8FC2F5684D4080B586B0049003913D
:10304000029200208DF80700FFE7049890F83C00FA
:10305000012804D1FFE702208DF8170080E00499D1
:10306000012081F83C00FFE7FFE70298B0B9FFE7D5
:1030700004980068039B19685A68DB6802F05EFBDD
:1030800004980168886920F00C00886103988268C0
:103090000498016888691043886156E00298042802
:1030A00017D1FFE704980068039B19685A68DB682A
:1030B00002F0FAFB04980168886920F44060886196
:1030C0000398826804980168886940EA0220886150
:1030D0003AE00298082816D1FFE704980068039B9D
:1030E00019685A68DB6802F015FC04980168C86921
:1030F00020F00C00C8610398826804980168C869D0
:103100001043C8611FE002980C2817D1FFE704980C
:103110000068039B19685A68DB6802F031FC049868
:103120000168C86920F44060C86103988268049807
:103130000168C86940EA0220C86103E001208DF8F7
:103140000700FFE7FFE7FFE7FFE7FFE7049900203D
:1031500081F83C00FFE79DF807008DF81700FFE7B6
:103160009DF8170006B080BD80B582B00090009831
:1031700020B9FFE701208DF807003FE0009890F8A4
:103180003D0040B9FFE70099002081F83C0000981D
:1031900000F038F8FFE70099022081F83D0000991F
:1031A00051F8040B01F0CCFF0099012081F8460092
:1031B000FFE70099012081F83E00009981F83F0067
:1031C000009981F84000009981F84100FFE7FFE78E
:1031D0000099012081F84200009981F8430000998C
:1031E00081F84400009981F84500FFE7009901202B
:1031F00081F83D0000208DF80700FFE79DF80700EB
:1032000002B080BD81B0009001B0704780B592B02F
:1032100010900F9100208DF83B000F9828B9FFE720
:10322000109890F83E000B901CE00F98042805D1F0
:10323000FFE7109890F83F000A9010E00F980828D8
:1032400005D1FFE7109890F84000099004E010982D
:1032500090F841000990FFE709980A90FFE70A9863
:103260000B90FFE70B988DF833000F9828B9FFE714
:10327000109890F8420008901CE00F98042805D19F
:10328000FFE7109890F84300079010E00F98082887
:1032900005D1FFE7109890F84400069004E01098DC
:1032A00090F845000690FFE706980790FFE707981B
:1032B0000890FFE708988DF832009DF83300012848
:1032C00005D1FFE79DF83200012804D0FFE7012077
:1032D0008DF84700E9E00F9828B9FFE71099022020
:1032E00081F83E001EE00F98042806D1FFE71099F0
:1032F000022081F83F00059012E00F98082806D1BF
:10330000FFE71099022081F84000049005E0109931
:10331000022081F841000490FFE704980590FFE740
:103320000598FFE70F9828B9FFE71099022081F868
:1033300042001EE00F98042806D1FFE710990220F2
:1033400081F84300039012E00F98082806D1FFE7A8
:103350001099022081F84400029005E010990220A3
:1033600081F845000290FFE702980390FFE7039879
:10337000FFE70F9801900C2825D80199DFE801F0AC
:10338000072323230E232323152323231C00109814
:103390000168C86840F00200C86018E01098016831
:1033A000C86840F00400C86011E010980168C8685F
:1033B00040F00800C8600AE010980168C86840F052
:1033C0001000C86003E001208DF83B00FFE79DF886
:1033D0003B00002864D1FFE7109800680F99012294
:1033E00001F07CFF109800680021C4F201018842BE
:1033F0003CD0FFE710980068B0F1804F36D0FFE76F
:103400001098006840F20041C4F2000188422DD0BB
:10341000FFE71098006840F60001C4F200018842FE
:1034200024D0FFE71098006840F60041C4F2000184
:1034300088421BD0FFE71098006840F20041C4F2B8
:103440000101884212D0FFE71098006844F20001A1
:10345000C4F20101884209D0FFE71098006841F6E4
:103460000001C4F20001884212D1FFE71098006801
:10347000806800F007000D900D98062807D0FFE740
:1034800010980168086840F001000860FFE706E056
:1034900010980168086840F001000860FFE7FFE746
:1034A0009DF83B008DF84700FFE79DF8470012B0FC
:1034B00080BD000080B582B001900198006800696D
:1034C00000F002010020B0EB510F28D0FFE7019877
:1034D0000068C06800F002010020B0EB510F1DD061
:1034E000FFE7019801686FF002000861019901206F
:1034F0000877019800688069800720B1FFE701988C
:10350000FFF746FD06E0019800F072F9019800F01F
:1035100067FAFFE7019900200877FFE7FFE70198C6
:103520000068006900F004010020B0EB910F29D081
:10353000FFE701980068C06800F004010020B0EBCC
:10354000910F1ED0FFE7019801686FF00400086139
:1035500001990220087701980068806910F4407F83
:1035600004D0FFE70198FFF713FD06E0019800F093
:103570003FF9019800F034FAFFE70199002008773D
:10358000FFE7FFE701980068006900F008010020EC
:10359000B0EBD10F28D0FFE701980068C06800F0B9
:1035A00008010020B0EBD10F1DD0FFE701980168A2
:1035B0006FF00800086101990420087701980068FD
:1035C000C069800720B1FFE70198FFF7E1FC06E042
:1035D000019800F00DF9019800F002FAFFE7019957
:1035E00000200877FFE7FFE701980068006900F016
:1035F00010010020B0EB111F29D0FFE701980068EF
:10360000C06800F010010020B0EB111F1ED0FFE7D2
:10361000019801686FF0100008610199082008778F
:1036200001980068C06910F4407F04D0FFE701985A
:10363000FFF7AEFC06E0019800F0DAF8019800F020
:10364000CFF9FFE7019900200877FFE7FFE701982E
:1036500000680069C00780B1FFE701980068C06892
:10366000C00748B1FFE7019801686FF001000861E9
:10367000019800F023FBFFE7FFE70198006800696D
:10368000C1B20020B0EBD11F13D0FFE70198006852
:10369000C068C1B20020B0EBD11F09D0FFE701988C
:1036A00001686FF0800008610198FFF75DFAFFE79D
:1036B000FFE701980068006900F040010020B0EBCE
:1036C000911F14D0FFE701980068C06800F0400126
:1036D0000020B0EB911F09D0FFE7019801686FF05F
:1036E00040000861019800F019FBFFE7FFE701982F
:1036F0000068006900F020010020B0EB511F14D0D9
:10370000FFE701980068C06800F020010020B0EBDE
:10371000511F09D0FFE7019801686FF02000086190
:103720000198FFF725FAFFE7FFE702B080BD000030
:1037300080B588B007900020069005900490039013
:10374000029007980068B0F1804F22D1FFE7FFE7B1
:103750000020019043F63000C4F20200016841F0FD
:1037600001010160006800F0010001900198FFE78D
:103770004FF4004002900220039000200490059036
:10378000012006900020C4F2020002A9FDF7FEFC11
:103790002BE00798006840F20041C4F20001884223
:1037A00022D1FFE7FFE70020009043F63000C4F28B
:1037B0000200016841F004010160006800F00400AB
:1037C00000900098FFE74FF40070029002200390F1
:1037D000002104910591069040F60000C4F2020019
:1037E00002A9FDF7D3FCFFE7FFE708B080BD0000AA
:1037F00081B0009001B0704780B586B0049003910D
:10380000029200208DF80700FFE7049890F83C0032
:10381000012804D1FFE702208DF8170089E0049900
:10382000012081F83C00FFE7FFE7029800900C2898
:1038300000F270800099DFE801F0076D6D6D206D7A
:103840006D6D3A6D6D6D530004980068039901F039
:1038500091FD04980168886940F008008861049827
:103860000168886920F0040088610398026904985F
:10387000016888691043886150E0049800680399E2
:1038800001F0EEFD04980168886940F400608861E9
:1038900004980168886920F480608861039802694F
:1038A00004980168886940EA0220886136E004983B
:1038B0000068039901F04EFE04980168C86940F061
:1038C0000800C86104980168C86920F00400C86154
:1038D0000398026904980168C8691043C8611DE033
:1038E00004980068039901F0AFFE04980168C86964
:1038F00040F40060C86104980168C86920F48060E1
:10390000C8610398026904980168C86940EA022006
:10391000C86103E001208DF80700FFE7FFE7049985
:10392000002081F83C00FFE79DF807008DF81700A4
:10393000FFE79DF8170006B080BD000080B582B09B
:103940000090009820B9FFE701208DF807003FE0C4
:10395000009890F83D0040B9FFE70099002081F8F9
:103960003C00009800F038F8FFE70099022081F849
:103970003D00009951F8040B01F0E2FB0099012091
:1039800081F84600FFE70099012081F83E00009988
:1039900081F83F00009981F84000009981F84100CA
:1039A000FFE7FFE70099012081F84200009981F8C4
:1039B0004300009981F84400009981F84500FFE731
:1039C0000099012081F83D0000208DF80700FFE7F5
:1039D0009DF8070002B080BD81B0009001B0704733
:1039E00081B0009001B0704780B58CB00A90099109
:1039F000099828B9FFE70A9890F83E0007901CE064
:103A00000998042805D1FFE70A9890F83F0006902E
:103A100010E00998082805D1FFE70A9890F84000BF
:103A2000059004E00A9890F841000590FFE705989A
:103A30000690FFE706980790FFE70798012804D053
:103A4000FFE701208DF82F00AFE0099828B9FFE7C4
:103A50000A99022081F83E001EE00998042806D148
:103A6000FFE70A99022081F83F00049012E00998CC
:103A7000082806D1FFE70A99022081F84000039048
:103A800005E00A99022081F841000390FFE70398BE
:103A90000490FFE70498FFE70A980068099901225B
:103AA000019201F01BFC01980A9909680022C4F2F6
:103AB0000102914202900CD0FFE70A9800684FF68D
:103AC0000041CBF6FE710844B0FA80F04009029044
:103AD000FFE70298C00738B1FFE70A980168486C11
:103AE00040F400404864FFE70A9800680021C4F2EF
:103AF000010188423CD0FFE70A980068B0F1804F8E
:103B000036D0FFE70A98006840F20041C4F2000195
:103B100088422DD0FFE70A98006840F60001C4F201
:103B20000001884224D0FFE70A98006840F600416F
:103B3000C4F2000188421BD0FFE70A98006840F2F7
:103B40000041C4F20101884212D0FFE70A980068E0
:103B500044F20001C4F20101884209D0FFE70A984B
:103B6000006841F60001C4F20001884212D1FFE76B
:103B70000A980068806800F00700089008980628F6
:103B800007D0FFE70A980168086840F00100086064
:103B9000FFE706E00A980168086840F00100086045
:103BA000FFE700208DF82F00FFE79DF82F000CB0F5
:103BB00080BD000080B586B005900491059800682E
:103BC0000499002201F08AFB059801680120002277
:103BD000C4F20102914203900CD0FFE705980068FF
:103BE0004FF60041CBF6FE710844B0FA80F0400970
:103BF0000390FFE70398C007D8B1FFE7FFE70598F8
:103C00000068006A41F21111084210D1FFE70598DF
:103C10000068006A40F24441084207D1FFE7059876
:103C20000168486C20F400404864FFE7FFE7FFE7C5
:103C3000FFE7FFE705980068006A41F211110842AA
:103C400010D1FFE705980068006A40F2444108423D
:103C500007D1FFE705980168086820F001000860B7
:103C6000FFE7FFE7FFE7049828B9FFE70599012080
:103C700081F83E001EE00498042806D1FFE705996C
:103C8000012081F83F00029012E00498082806D134
:103C9000FFE70599012081F84000019005E00599B2
:103CA000012081F841000190FFE701980290FFE7B1
:103CB0000298FFE7002006B080BD000081B00090B0
:103CC00001B0704784B003900291002001900298E7
:103CD00000900C281DD80099DFE801F0071B1B1B82
:103CE0000C1B1B1B111B1B1B160003980068406B51
:103CF00001900FE003980068806B01900AE0039840
:103D00000068C06B019005E003980068006C0190AA
:103D100000E0FFE7019804B07047000081B0009018
:103D200001B0704782B00190ADF8021002B0704748
:103D300081B0009001B0704780B592B01190119899
:103D400000680068109011980068C0680F90119882
:103D5000006840690E9000200D900C90109800F0C3
:103D60000F000D900D9888B9FFE79DF84000800680
:103D700000280AD5FFE79DF83C008006002804D5FE
:103D8000FFE7119801F04CFFE3E1FFE70D980028F1
:103D900000F0C280FFE79DF83800C00738B9FFE7A0
:103DA000BDF83C0010F4907F00F0B680FFE79DF86E
:103DB0004000C00758B1FFE79DF83D00C00730B193
:103DC000FFE71199086C40F001000864FFE79DF8D7
:103DD0004000400700280BD5FFE79DF83800C007DA
:103DE00030B1FFE71199086C40F002000864FFE76A
:103DF0009DF84000800700280BD5FFE79DF83800AC
:103E0000C00730B1FFE71199086C40F00400086466
:103E1000FFE79DF840000007002811D5FFE79DF857
:103E20003C008006002805D4FFE79DF83800C00755
:103E300030B1FFE71199086C40F008000864FFE713
:103E40001198006C002866D0FFE79DF840008006BE
:103E500000280AD5FFE79DF83C008006002804D51D
:103E6000FFE7119801F0DCFEFFE711980068406958
:103E7000C0F380100C901198006C0007002804D447
:103E8000FFE70C9800283ED0FFE7119801F04EFEA6
:103E9000119800684069400600282FD5FFE7FFE72A
:103EA000FFE71198006850E8050F20F040000B90E4
:103EB000FFE70B991198026842E805100028F0D13D
:103EC000FFE7FFE71198806B98B1FFE71198816BCE
:103ED00045F6FD10C0F6000008651198806BFCF7F0
:103EE0001BFE28B1FFE71198806B016D8847FFE743
:103EF00003E01198FFF71CFFFFE703E01198FFF7BD
:103F000017FFFFE706E01198FFF712FF1199002055
:103F10000864FFE7FFE71CE11198006B012840F0FF
:103F2000F880FFE79DF84000C006002840F1F180CE
:103F3000FFE79DF83C00C006002840F1EA80FFE75B
:103F4000FFE700200A901198006800680A90119815
:103F5000006840680A900A98FFE711980068406975
:103F6000400600287ED5FFE71198806B0068406806
:103F7000ADF82600BDF82600002872D0FFE7BDF896
:103F800026001199898D88426BDAFFE7BDF826007B
:103F90001199C8851198806BC069B0F5807F58D0A1
:103FA000FFE7FFE7FFE71198006850E8030F20F4F0
:103FB00080700890FFE708991198026842E80310A2
:103FC0000028F0D1FFE7FFE7FFE7FFE7119800685F
:103FD00050E8050F20F001000790FFE707991198BE
:103FE000026842E805100028F0D1FFE7FFE7FFE78D
:103FF000FFE71198006850E8050F20F04000069098
:10400000FFE706991198026842E805100028F0D1F0
:10401000FFE7FFE71199202081F83E001199002069
:104020000863FFE7FFE71198006850E8030F20F0EE
:1040300010000590FFE705991198026842E8031007
:104040000028F0D1FFE7FFE71198806BFCF7EEFC4A
:10405000FFE71198818DC28D891A89B2FFF762FE40
:10406000FFE776E01199888DC98D401AADF81200EE
:104070001198C08D00284BD0FFE7BDF81200002832
:1040800046D0FFE7FFE7FFE71198006850E8030F0D
:1040900020F490700390FFE703991198026842E8BA
:1040A00003100028F0D1FFE7FFE7FFE7FFE71198D3
:1040B000006850E8050F20F001000290FFE7029928
:1040C0001198026842E805100028F0D1FFE7FFE7E9
:1040D0001199202081F83E00119900200863FFE724
:1040E000FFE71198006850E8030F20F010000190DE
:1040F000FFE701991198026842E803100028F0D107
:10410000FFE7FFE71198BDF81210FFF70BFEFFE77E
:104110001FE09DF84000000600280AD5FFE79DF843
:104120003C000006002804D5FFE7119801F000FFCD
:104130000FE09DF84000400600280AD5FFE79DF8F3
:104140003C004006002804D5FFE7119801F038FD37
:10415000FFE712B080BD000080B582B000900098EB
:1041600020B9FFE701208DF807003EE00098806944
:1041700008B1FFE700E0FFE7009890F83D0040B984
:10418000FFE70099002081F83C00009800F032F829
:10419000FFE70099242081F83D0000980168C86875
:1041A00020F40050C860009801F0ECFD0098016810
:1041B000086920F49040086100980168486920F07F
:1041C0002A00486100980168C86840F40050C8603F
:1041D000009900200864009A202182F83D10009A7E
:1041E00082F83E108DF80700FFE79DF8070002B047
:1041F00080BD000080B592B01190002010900F900B
:104200000E900D900C901198006845F20001C4F2D8
:104210000001884240F09680FFE7FFE700200B9006
:1042200043F64000C4F20200016841F480110160CD
:10423000006800F480100B900B98FFE7FFE7002068
:104240000A9043F63000C4F20200016841F0040114
:104250000160006800F004000A900A98FFE7FFE799
:104260000020099043F63000C4F20200016841F0DA
:1042700008010160006800F0080009900998FFE754
:104280004FF480500C90022001900D90002005907A
:104290000E90032002900F9008200390109040F69B
:1042A0000000C4F202000CA90491FCF76FFFDDF8D6
:1042B00004C0029A03980499059B4FF0040ECDF8B0
:1042C00030E0CDF834C00E930F92109040F60040CD
:1042D000C4F20200FCF75AFF059940F2B400C2F2A2
:1042E0000000069046F2B802C4F2020202604FF0EB
:1042F0000062426040228260C1604FF480620261CD
:10430000416181614FF48072C26101624162FCF7D8
:10431000BDFD18B1FFE7FCF781FBFFE7FFE7119850
:1043200040F2B401C2F20001416311988863FFE7D3
:104330003520009000221146FDF7C4F90098FDF7E2
:10434000B7F93CE01198006844F20041C4F2000162
:10435000884233D1FFE7FFE70020089043F6400092
:10436000C4F20200016841F400310160006800F409
:10437000003008900898FFE7FFE70020079043F619
:104380003000C4F20200016841F0010101600068E0
:1043900000F0010007900798FFE70C200C90022026
:1043A0000D9000200E9003200F9007201090002009
:1043B000C4F202000CA9FCF7E9FEFFE7FFE712B028
:1043C00080BD000080B584B002900191ADF802205C
:1043D000029890F83E00202828D1FFE7019820B1EC
:1043E000FFE7BDF8020020B9FFE701208DF80F00BC
:1043F00020E0FFE7029890F83C00012804D1FFE795
:1044000002208DF80F0015E00299012081F83C0090
:10441000FFE7FFE702990020086302980199BDF8C1
:10442000022001F04DFD8DF80F0003E002208DF811
:104430000F00FFE79DF80F0004B080BD80B584B089
:10444000039040F24001C2F2000108788DF80B00A1
:1044500040F24020C2F200000122FFF7B3FF9DF8B6
:104460000B00FF280DD1FFE740F20C01C2F2000162
:104470000120086040F23C01C2F200010020086007
:104480004CE040F20C00C2F20000006801900128EC
:1044900008D0FFE7019802281FD0FFE70198032802
:1044A00034D03AE09DF80B1040F23C00C2F200001C
:1044B000036840F24502C2F20002D15401680131A2
:1044C00001600068022807D1FFE740F20C01C2F248
:1044D000000102200860FFE71FE09DF80B00FE28A6
:1044E0000DD1FFE740F24500C2F20000027840F231
:1044F0004101C2F200014A7040788870FFE740F243
:104500000C01C2F200010320086006E040F20C0139
:10451000C2F2000103200860FFE7FFE704B080BD9E
:1045200080B58AB008900791ADF81A200593002055
:104530000290089890F83D00202840F09080FFE716
:10454000079820B1FFE7BDF81A0020B9FFE7012066
:104550008DF8270087E0FFE7089890F83C000128D5
:1045600004D1FFE702208DF827007CE008990120A4
:1045700081F83C00FFE7FFE70899002008640899EC
:10458000212081F83D00FCF7FFFF0290BDF81A00E2
:1045900008998884BDF81A000899C884089880682A
:1045A000B0F5805F09D1FFE70898006928B9FFE7F7
:1045B000002004900798039004E0079804900020DE
:1045C0000390FFE7FFE70899002081F83C00FFE730
:1045D000FFE70898C08C58B3FFE70898029B05993D
:1045E0006A4611608021002201F0ECFC20B1FFE757
:1045F00003208DF8270036E0049858B9FFE70398A8
:1046000000886FF35F2008990968486003980230BA
:10461000039008E0049800780899096848600498B5
:1046200001300490FFE70899C88C0138C884D0E7AE
:104630000898029B05996A4611604021002201F00A
:10464000C1FC20B1FFE703208DF827000BE008999B
:10465000202081F83D0000208DF8270003E0022093
:104660008DF82700FFE79DF827000AB080BD000005
:1046700080B586B004900391ADF80A20049890F8B4
:104680003D00202874D1FFE7039820B1FFE7BDF873
:104690000A0020B9FFE701208DF817006CE0FFE762
:1046A000049890F83C00012804D1FFE702208DF81F
:1046B000170061E00499012081F83C00FFE7FFE763
:1046C000039804990862BDF80A0004998884BDF82B
:1046D0000A000499C884049900200864049A2121DE
:1046E00082F83D1004994A6B45F69921C0F6000105
:1046F000D16304994A6B45F61531C0F60001116487
:1047000004994A6B45F61D21C0F60001D164049955
:10471000496B086503A8019004980268406B0199F1
:1047200009680432BDF80A30FCF768FC0498016897
:104730006FF040000860FFE70499002081F83C001A
:10474000FFE7FFE7FFE70498006850E8050F40F037
:1047500080000090FFE700990498026842E8051085
:104760000028F0D1FFE7FFE700208DF8170003E0F5
:1047700002208DF81700FFE79DF8170006B080BDF6
:1047800081B0009001B0704781B0009001B07047D7
:10479000FFE7FEE780B586B0FFE70020059043F60F
:1047A0003000C4F20200016841F4001101600068A9
:1047B00000F4001005900598FFE7FFE70020049043
:1047C00043F63000C4F20200016841F48001016048
:1047D000006800F4800004900498FFE72F20019007
:1047E000002202921146FCF76DFF0198FCF760FF72
:1047F000029A3B2003901146FCF764FF0398FCF7F4
:1048000057FF06B080BD000080B594B00020139023
:104810001290119010900F90FFE700200E9043F639
:104820003000C4F20200016841F004010160006838
:1048300000F004000E900E98FFE7FFE700200D90B7
:1048400043F63000C4F20200016841F080010160CB
:10485000006800F080000D900D98FFE7FFE7002052
:104860000C9043F63000C4F20200016841F00101EF
:104870000160006800F001000C900C98FFE7FFE772
:1048800000200B9043F63000C4F20200016841F0B2
:1048900002010160006800F002000B900B98FFE736
:1048A000FFE700200A9043F63000C4F202000168DE
:1048B00041F008010160006800F008000A900A98C1
:1048C000FFE740F60000C4F2020006904FF4F671D4
:1048D000009100220892FCF73FFE089A40F2004047
:1048E000C4F2020002904FF498610191FCF734FE8B
:1048F000089A0020C4F2020005904FF48051039101
:10490000FCF72AFE069808994FF400520F924FF4D4
:104910000412109211910FA90791FCF737FC009B2C
:1049200006980799089A0F93012304931093119204
:104930001292FCF72BFC0298049A0799089B49F203
:10494000020CCDF83CC010931192FCF71FFCDDF86F
:1049500004C00298049B0799089ACDF83CC01093B4
:1049600011921292FCF712FC049A05980799089B81
:104970004FF4006CCDF83CC010931192FCF706FC8C
:10498000DDF80CC0049B05980799089ACDF83CC047
:10499000109311921292FCF7F9FB06980799089A66
:1049A0004FF480630F934FF4441310931192FCF76C
:1049B000EDFB089A282009901146FCF783FE099820
:1049C000FCF776FE14B080BD80B582B040F21410C2
:1049D000C2F20000009043F20001C4F20101016044
:1049E0004FF482714160002101918160C1600161D9
:1049F00041614FF400728261C16101624162816272
:104A00000A21C162FDF744FD18B1FFE7FCF706F883
:104A1000FFE702B080BD000080B592B00021009198
:104A2000119110910F910E910D910C910B910A9192
:104A300009910891079106910591049103910291C2
:104A4000019140F26C10C2F200004FF0804202600F
:104A500053224260816040F63F52C0F20302C260BE
:104A600001618161FEF71AF918B1FFE7FBF7D6FF84
:104A7000FFE74FF480500E9040F26C10C2F200003D
:104A80000EA9FEF7C3F918B1FFE7FBF7C7FFFFE771
:104A900040F26C10C2F20000FEF750FF18B1FFE7C1
:104AA000FBF7BCFFFFE740F26C10C2F20000FEF71C
:104AB0005BFB18B1FFE7FBF7B1FFFFE700200C90AD
:104AC0000D9040F26C10C2F200000CA9FEF754F8F1
:104AD00018B1FFE7FBF7A2FFFFE7602005900A206F
:104AE000069000220792099240F26C10C2F2000078
:104AF00005A9FEF781FE18B1FFE7FBF78FFFFFE77F
:104B00000A2001900120029000200390049040F2BE
:104B10006C10C2F2000001A90C22FEF78DFA18B148
:104B2000FFE7FBF77BFFFFE740F26C10C2F20000EB
:104B3000FEF7FEFD12B080BD80B58EB00021009161
:104B40000D910C910B910A91099108910791069191
:104B50000591049103910291019140F2B410C2F2C7
:104B6000000040F20042C4F20002026053224260A0
:104B700081601922C26001618161FEF78FF818B16E
:104B8000FFE7FBF74BFFFFE74FF480500A9040F23E
:104B9000B410C2F200000AA9FEF738F918B1FFE715
:104BA000FBF73CFFFFE740F2B410C2F20000FEF753
:104BB000C5FE18B1FFE7FBF731FFFFE700200890C3
:104BC000099040F2B410C2F2000008A9FDF7D4FF2A
:104BD00018B1FFE7FBF722FFFFE7602001900D20EF
:104BE000029000200390059040F2B410C2F2000041
:104BF00001A90C22FEF700FE18B1FFE7FBF70EFF3C
:104C0000FFE740F2B410C2F20000FEF791FD0EB0D3
:104C100080BD000080B582B040F24020C2F20000AA
:104C2000019045F20001C4F2000101604FF4966169
:104C3000416000218160C16001610C22426181619B
:104C4000C161FFF789FA18B1FFE7FBF7E7FEFFE75D
:104C500002B080BD80B582B040F2FC10C2F200000C
:104C6000019044F20041C4F2000101604FF4E131CF
:104C7000416000218160C16001610C22426181615B
:104C8000C161FFF769FA18B1FFE7FBF7C7FEFFE75D
:104C900002B080BDFFE7FEE7FFE7FEE788B00790C0
:104CA00006910592079800F0070004900498C0F15F
:104CB0000700052803D3FFE70420019004E00498CF
:104CC000C0F107000190FFE70198039004980430B9
:104CD000062803D8FFE70020009003E0049803387B
:104CE0000090FFE70098029006980399012202FACB
:104CF00001F101390840029B984005999A40013A18
:104D00001140084308B070477047000080B540F27A
:104D10001410C2F20000FDF7A3FA80BD80B582B086
:104D200001900198806B009000990020C88700993D
:104D3000C8860098FDF790FA02B080BD80B582B0B9
:104D400001900198806B009000980168486820F0FD
:104D5000030048600099486D40F0100048650099D4
:104D6000012081F851000098FDF776FA02B080BD6D
:104D700080B582B001900198806B00900098FDF79B
:104D800081FE02B080BD000080B584B0039003981E
:104D9000806B0290FCF7F8FB0190039800680068B4
:104DA00000F48070B0F5807F3BD0FFE70298016887
:104DB000486820F02000486002980168486820F0A8
:104DC000020048600298019A642100F031F830B185
:104DD000FFE70299486D40F020004865FFE7029820
:104DE000806870B9FFE7FFE7002000900298006834
:104DF000C068009002980068806800900098FFE703
:104E0000FFE702990020C8860299012081F851002D
:104E10000298406D20B1FFE70298FDF71DFA04E00B
:104E2000FFE70298FDF72AFEFFE704B080BD00000F
:104E300080B586B004900391029240F21000C2F255
:104E4000000000684AF6AB21CAF6AA21A0FB0110B7
:104E500000094DF68361C4F21B31A0FB0110800CE8
:104E60004FF47A714843019004984068B0F5827F0E
:104E700015D1FFE70498039B02996A4611608021CF
:104E8000002200F027F848B1FFE70499486D40F090
:104E90002000486503208DF8170017E012E0FFE7B7
:104EA000019808B9FFE70CE0019801380190FFE78D
:104EB000049800688068C1B20020B0EBD11FEFD128
:104EC000FFE7FFE700208DF81700FFE79DF81700C8
:104ED00006B080BD80B58AB0DDF830C0089007917B
:104EE0008DF81B20059305980190FCF74DFB0246B9
:104EF00001980C99891A08440390FCF745FB02902D
:104F0000039840F21001C2F200010968C1F3CB31ED
:104F100048430490FFE708980068806807990840B4
:104F2000401AB0FA80F040099DF81B1088425ED00C
:104F3000FFE705980130002858D0FFE7FCF724FB75
:104F40000299401A0399884204D2FFE70398002887
:104F500042D1FFE708980168486820F0E000486007
:104F600008984068B0F5827F13D1FFE70898806801
:104F7000B0F5004F06D0FFE708988068B0F5806F65
:104F800007D1FFE708980168086820F04000086032
:104F9000FFE70898806AB0F5005F0FD1FFE7FFE7F1
:104FA00008980168086820F40050086008980168B3
:104FB000086840F400500860FFE7FFE70899012007
:104FC00081F85100FFE70899002081F85000FFE7C1
:104FD00003208DF827000EE0049818B9FFE70020A1
:104FE0000390FFE7049801380490FFE793E700205F
:104FF0008DF82700FFE79DF827000AB080BD00006C
:105000007047000080B582B0009000980138B0F180
:10501000807F03D3FFE70120019019E00098013859
:105020004EF21401CEF2000108604FF0FF300F2164
:1050300001F054F84EF21801CEF200010020086091
:105040004EF21002CEF20002072111600190FFE73C
:10505000019802B080BD000080B5FCF79BFAFDF717
:105060007FFD80BD80B594B007A83421FBF70EF911
:10507000002006900590049003900290FFE7002026
:10508000019043F64000C4F20200016841F08051F3
:105090000160006800F0805001900198FFE7FFE791
:1050A0000020009047F20000C4F2000001680122D5
:1050B00062F38F310160006800F440400090009876
:1050C000FFE70220079001210A9110210B910D901A
:1050D00000220E920F914FF4A871109104211191AA
:1050E0001290139007A8FCF723FD18B1FFE7FBF718
:1050F00095FCFFE70F20029002210391002004900D
:105100004FF480520592069002A8FCF7FDFA18B100
:10511000FFE7FBF783FCFFE714B080BD4EF6885134
:10512000CEF20001086840F470000860704700008B
:1051300080B540F26C10C2F20000FEF7BBF980BDF2
:1051400083B00290019102980068009002980021BB
:10515000C4F20101884225D0FFE70298B0F1804FE8
:1051600020D0FFE7029840F20041C4F200018842DB
:1051700018D0FFE7029840F60001C4F2000188420F
:1051800010D0FFE7029840F60041C4F200018842C7
:1051900008D0FFE7029840F20041C4F201018842C2
:1051A0000AD1FFE7009820F0700000900198416854
:1051B000009808430090FFE702980021C4F2010123
:1051C000884255D0FFE70298B0F1804F50D0FFE7FA
:1051D000029840F20041C4F20001884248D0FFE743
:1051E000029840F60001C4F20001884240D0FFE777
:1051F000029840F60041C4F20001884238D0FFE72F
:10520000029840F20041C4F20101884230D0FFE729
:10521000029844F20001C4F20101884228D0FFE75D
:10522000029844F20041C4F20101884220D0FFE715
:10523000029844F60001C4F20101884218D0FFE749
:10524000029841F60001C4F20001884210D0FFE745
:10525000029841F60041C4F20001884208D0FFE7FD
:10526000029842F20001C4F2000188420AD1FFE72D
:10527000009820F4407000900198C168009808439D
:105280000090FFE7009820F08000019949690843E9
:105290000090009802990860019880680299C8629D
:1052A000019800680299886202980021C4F2010105
:1052B000884208D0FFE7029840F20041C4F20101A1
:1052C000884205D1FFE70198006902990863FFE76A
:1052D00002990120486103B07047000084B0039038
:1052E00002910192029800F01F0101208840009075
:1052F000009A0399086A904308620198029901F0A4
:105300001F0100FA01F20399086A1043086204B011
:105310007047000085B004900391029201930498B5
:1053200080680090009820F47F40009003980299D4
:10533000019A41EA02210143009808430090009835
:105340000499886005B0704783B00290019102987B
:1053500080680090009820F07000009001980099FB
:10536000084340F00700009000980299886003B05D
:105370007047000085B0049003910499086A20F0FA
:10538000010008620498006A019004984068009047
:10539000049880690290029820F0700002900298B0
:1053A00020F00300029003980168029808430290DD
:1053B000019820F002000190039881680198084349
:1053C000019004980021C4F20101884208D0FFE74F
:1053D000049840F20041C4F2010188420ED1FFE777
:1053E000019820F0080001900398C16801980843D3
:1053F0000190019820F004000190FFE7049800213B
:10540000C4F20101884208D0FFE7049840F200414D
:10541000C4F20101884213D1FFE7009820F48070A4
:105420000090009820F40070009003984169009863
:105430000843009003988169009808430090FFE7B3
:10544000009804994860029804998861039840681C
:105450000499486301980499086205B070470000F8
:1054600085B0049003910499086A20F01000086246
:105470000498006A0190049840680090049880693C
:105480000290029820F4E0400290029820F44070CC
:10549000029003980168029840EA01200290019866
:1054A00020F02000019003988168019840EA0110E3
:1054B000019004980021C4F20101884208D0FFE75E
:1054C000049840F20041C4F2010188420FD1FFE785
:1054D000019820F0800001900398C168019840EA8B
:1054E00001100190019820F040000190FFE704981E
:1054F0000021C4F20101884208D0FFE7049840F27D
:105500000041C4F20101884215D1FFE7009820F460
:1055100080600090009820F400600090039841693A
:10552000009840EA8100009003988169009840EA61
:1055300081000090FFE70098049948600298049960
:105540008861039840680499886301980499086207
:1055500005B0704785B0049003910499086A20F45F
:10556000807008620498006A019004984068009076
:105570000498C0690290029820F07000029002988E
:1055800020F00300029003980168029808430290FB
:10559000019820F40070019003988168019840EA16
:1055A0000120019004980021C4F20101884208D032
:1055B000FFE7049840F20041C4F2010188420FD194
:1055C000FFE7019820F4006001900398C1680198FA
:1055D00040EA01200190019820F480600190FFE7EB
:1055E00004980021C4F20101884208D0FFE7049822
:1055F00040F20041C4F20101884215D1FFE7009852
:1056000020F480500090009820F4005000900398FF
:105610004169009840EA0110009003988169009860
:1056200040EA01100090FFE7009804994860029852
:105630000499C861039840680499C8630198049963
:10564000086205B07047000085B00490039104998A
:10565000086A20F4805008620498006A0190049857
:10566000406800900498C0690290029820F4E040DD
:105670000290029820F4407002900398016802980A
:1056800040EA01200290019820F400500190039814
:105690008168019840EA0130019004980021C4F229
:1056A0000101884208D0FFE7049840F20041C4F2AB
:1056B000010188420BD1FFE7009820F48040009060
:1056C00003984169009840EA81100090FFE7009834
:1056D0000499486002980499C86103984068049945
:1056E000086401980499086205B0704785B0049079
:1056F000039102920498006A00900499086A20F0CD
:1057000001000862049880690190019820F0F0007F
:1057100001900299019840EA01100190009820F050
:105720000A0000900399009808430090019804999A
:10573000886100980499086205B0704787B00690A8
:105740000591049203930699086A20F0010008620B
:105750000698806902900698006A019006990120D7
:105760000022C4F201029142009044D0FFE7069962
:105770000120B1F1804F00903DD0FFE70699012054
:1057800040F20042C4F200029142009033D0FFE7A1
:105790000699012040F60002C4F2000291420090F6
:1057A00029D0FFE70699012040F60042C4F200022A
:1057B000914200901FD0FFE70699012040F200427D
:1057C000C4F201029142009015D0FFE70699012032
:1057D00044F20002C4F20102914200900BD0FFE7B4
:1057E00006984EF60001CBF6FF710844B0FA80F03F
:1057F00040090090FFE70098C00748B1FFE7029812
:1058000020F003000290049902980843029004E0FB
:10581000029840F001000290FFE7029820F0F000AB
:10582000029003980001C1B20298084302900198C7
:1058300020F00A000190059800F00A010198084341
:10584000019002980699886101980699086207B04C
:105850007047000085B00490039102920499086A91
:1058600020F0100008620498806901900498006A92
:105870000090019820F4704001900299019840EA4C
:1058800001300190009820F0A0000090039900984A
:1058900040EA0110009001980499886100980499E9
:1058A000086205B07047000086B00590049103922D
:1058B00002930599086A20F0100008620598806933
:1058C00001900598006A0090019820F440700190C2
:1058D0000399019840EA01200190019820F470405A
:1058E00001900298000381B201980843019000984A
:1058F00020F0A0000090049800F00A01009840EA0F
:105900000110009001980599886100980599086236
:1059100006B0704786B005900491039202930599F2
:10592000086A20F4807008620598C06901900598A3
:10593000006A0090019820F00300019003990198FB
:1059400008430190019820F0F000019002980001B6
:10595000C1B2019808430190009820F420600090A3
:10596000049800F00A01009840EA01200090019894
:105970000599C86100980599086206B07047000053
:1059800086B005900491039202930599086A20F469
:10599000805008620598C06901900598006A0090DF
:1059A000019820F4407001900399019840EA012089
:1059B0000190019820F4704001900298000381B298
:1059C000019808430190009820F42040009004982A
:1059D00000F00A01009840EA013000900198059912
:1059E000C86100980599086206B0704780B540F21A
:1059F0004020C2F20000FEF79FF980BD80B582B062
:105A000001900198806B009000990020C885009952
:105A1000C8840098FEF78CF902B080BD80B584B0D0
:105A20000390002002900398806B01900198006819
:105A30004069C0B2C0090290019890F83D00212849
:105A40000AD1FFE7029838B1FFE701990020C88426
:105A5000019800F0C9F8FFE7019800684069C0F3B9
:105A600080100290019890F83E0022280AD1FFE7AA
:105A7000029838B1FFE701990020C885019800F02D
:105A800055F8FFE70199086C40F010000864019890
:105A9000FEF74EF904B080BD80B584B00390039842
:105AA000806B0290039800680068C00500282AD423
:105AB000FFE702990020C884FFE7FFE7029800682B
:105AC00050E8050F20F080000190FFE7019902984F
:105AD000026842E805100028F0D1FFE7FFE7FFE782
